{
  "contractName": "Products",
  "abi": [
    {
      "constant": true,
      "inputs": [],
      "name": "getProducts",
      "outputs": [
        {
          "components": [
            {
              "internalType": "uint256",
              "name": "id",
              "type": "uint256"
            },
            {
              "internalType": "string",
              "name": "name",
              "type": "string"
            },
            {
              "internalType": "uint256",
              "name": "price",
              "type": "uint256"
            },
            {
              "internalType": "string",
              "name": "coverImage",
              "type": "string"
            },
            {
              "internalType": "string[]",
              "name": "platforms",
              "type": "string[]"
            },
            {
              "internalType": "uint256",
              "name": "creationDate",
              "type": "uint256"
            },
            {
              "internalType": "uint256",
              "name": "releaseDate",
              "type": "uint256"
            },
            {
              "internalType": "string",
              "name": "developer",
              "type": "string"
            },
            {
              "internalType": "string",
              "name": "distributor",
              "type": "string"
            },
            {
              "internalType": "string[]",
              "name": "genres",
              "type": "string[]"
            },
            {
              "internalType": "string",
              "name": "description",
              "type": "string"
            },
            {
              "internalType": "uint256",
              "name": "sales",
              "type": "uint256"
            },
            {
              "internalType": "bool",
              "name": "isActive",
              "type": "bool"
            }
          ],
          "internalType": "struct Products.Product[]",
          "name": "",
          "type": "tuple[]"
        }
      ],
      "payable": false,
      "stateMutability": "view",
      "type": "function"
    },
    {
      "constant": false,
      "inputs": [
        {
          "internalType": "string",
          "name": "name",
          "type": "string"
        },
        {
          "internalType": "uint256",
          "name": "price",
          "type": "uint256"
        },
        {
          "internalType": "string",
          "name": "coverImage",
          "type": "string"
        },
        {
          "internalType": "string[]",
          "name": "platforms",
          "type": "string[]"
        },
        {
          "internalType": "uint256",
          "name": "releaseDate",
          "type": "uint256"
        },
        {
          "internalType": "string",
          "name": "developer",
          "type": "string"
        },
        {
          "internalType": "string",
          "name": "distributor",
          "type": "string"
        },
        {
          "internalType": "string[]",
          "name": "genres",
          "type": "string[]"
        },
        {
          "internalType": "string",
          "name": "description",
          "type": "string"
        }
      ],
      "name": "addProduct",
      "outputs": [
        {
          "internalType": "bool",
          "name": "success",
          "type": "bool"
        }
      ],
      "payable": false,
      "stateMutability": "nonpayable",
      "type": "function"
    },
    {
      "constant": false,
      "inputs": [
        {
          "internalType": "uint256",
          "name": "id",
          "type": "uint256"
        }
      ],
      "name": "removeProduct",
      "outputs": [
        {
          "internalType": "bool",
          "name": "success",
          "type": "bool"
        }
      ],
      "payable": false,
      "stateMutability": "nonpayable",
      "type": "function"
    },
    {
      "constant": false,
      "inputs": [
        {
          "internalType": "uint256",
          "name": "id",
          "type": "uint256"
        }
      ],
      "name": "buyProduct",
      "outputs": [],
      "payable": true,
      "stateMutability": "payable",
      "type": "function"
    }
  ],
  "bytecode": "0x608060405273bf1bbff196efd824a9d460fde965861e8296f4286000806101000a81548173ffffffffffffffffffffffffffffffffffffffff021916908373ffffffffffffffffffffffffffffffffffffffff16021790555034801561006457600080fd5b506114a8806100746000396000f3fe60806040526004361061003f5760003560e01c80635ee95cae146100445780638642269e14610081578063c29b2f201461009d578063df13c85a146100c8575b600080fd5b34801561005057600080fd5b5061006b60048036036100669190810190610e7e565b610105565b6040516100789190611233565b60405180910390f35b61009b60048036036100969190810190610e7e565b610146565b005b3480156100a957600080fd5b506100b2610281565b6040516100bf9190611211565b60405180910390f35b3480156100d457600080fd5b506100ef60048036036100ea9190810190610d10565b61082a565b6040516100fc9190611233565b60405180910390f35b6000806001838154811061011557fe5b90600052602060002090600d0201600c0160006101000a81548160ff02191690831515021790555060019050919050565b670de0b6b3a76400006001828154811061015c57fe5b90600052602060002090600d0201600201540234146101b0576040517f08c379a00000000000000000000000000000000000000000000000000000000081526004016101a79061126e565b60405180910390fd5b60008060009054906101000a900473ffffffffffffffffffffffffffffffffffffffff1673ffffffffffffffffffffffffffffffffffffffff16346040516101f7906111fc565b60006040518083038185875af1925050503d8060008114610234576040519150601f19603f3d011682016040523d82523d6000602084013e610239565b606091505b505090508061027d576040517f08c379a00000000000000000000000000000000000000000000000000000000081526004016102749061124e565b60405180910390fd5b5050565b60606001805480602002602001604051908101604052809291908181526020016000905b8282101561082157838290600052602060002090600d0201604051806101a001604052908160008201548152602001600182018054600181600116156101000203166002900480601f01602080910402602001604051908101604052809291908181526020018280546001816001161561010002031660029004801561036c5780601f106103415761010080835404028352916020019161036c565b820191906000526020600020905b81548152906001019060200180831161034f57829003601f168201915b5050505050815260200160028201548152602001600382018054600181600116156101000203166002900480601f0160208091040260200160405190810160405280929190818152602001828054600181600116156101000203166002900480156104185780601f106103ed57610100808354040283529160200191610418565b820191906000526020600020905b8154815290600101906020018083116103fb57829003601f168201915b5050505050815260200160048201805480602002602001604051908101604052809291908181526020016000905b82821015610502578382906000526020600020018054600181600116156101000203166002900480601f0160208091040260200160405190810160405280929190818152602001828054600181600116156101000203166002900480156104ee5780601f106104c3576101008083540402835291602001916104ee565b820191906000526020600020905b8154815290600101906020018083116104d157829003601f168201915b505050505081526020019060010190610446565b5050505081526020016005820154815260200160068201548152602001600782018054600181600116156101000203166002900480601f0160208091040260200160405190810160405280929190818152602001828054600181600116156101000203166002900480156105b75780601f1061058c576101008083540402835291602001916105b7565b820191906000526020600020905b81548152906001019060200180831161059a57829003601f168201915b50505050508152602001600882018054600181600116156101000203166002900480601f0160208091040260200160405190810160405280929190818152602001828054600181600116156101000203166002900480156106595780601f1061062e57610100808354040283529160200191610659565b820191906000526020600020905b81548152906001019060200180831161063c57829003601f168201915b5050505050815260200160098201805480602002602001604051908101604052809291908181526020016000905b82821015610743578382906000526020600020018054600181600116156101000203166002900480601f01602080910402602001604051908101604052809291908181526020018280546001816001161561010002031660029004801561072f5780601f106107045761010080835404028352916020019161072f565b820191906000526020600020905b81548152906001019060200180831161071257829003601f168201915b505050505081526020019060010190610687565b505050508152602001600a82018054600181600116156101000203166002900480601f0160208091040260200160405190810160405280929190818152602001828054600181600116156101000203166002900480156107e45780601f106107b9576101008083540402835291602001916107e4565b820191906000526020600020905b8154815290600101906020018083116107c757829003601f168201915b50505050508152602001600b8201548152602001600c820160009054906101000a900460ff161515151581525050815260200190600101906102a5565b50505050905090565b60006108346109fc565b604051806101a0016040528060018054905081526020018c81526020018b81526020018a8152602001898152602001428152602001888152602001878152602001868152602001858152602001848152602001600081526020016001151581525090506001819080600181540180825580915050906001820390600052602060002090600d0201600090919290919091506000820151816000015560208201518160010190805190602001906108eb929190610a66565b50604082015181600201556060820151816003019080519060200190610912929190610a66565b50608082015181600401908051906020019061092f929190610ae6565b5060a0820151816005015560c0820151816006015560e0820151816007019080519060200190610960929190610a66565b5061010082015181600801908051906020019061097e929190610a66565b5061012082015181600901908051906020019061099c929190610ae6565b5061014082015181600a0190805190602001906109ba929190610a66565b5061016082015181600b015561018082015181600c0160006101000a81548160ff02191690831515021790555050505060019150509998505050505050505050565b604051806101a001604052806000815260200160608152602001600081526020016060815260200160608152602001600081526020016000815260200160608152602001606081526020016060815260200160608152602001600081526020016000151581525090565b828054600181600116156101000203166002900490600052602060002090601f016020900481019282601f10610aa757805160ff1916838001178555610ad5565b82800160010185558215610ad5579182015b82811115610ad4578251825591602001919060010190610ab9565b5b509050610ae29190610b46565b5090565b828054828255906000526020600020908101928215610b35579160200282015b82811115610b34578251829080519060200190610b24929190610a66565b5091602001919060010190610b06565b5b509050610b429190610b6b565b5090565b610b6891905b80821115610b64576000816000905550600101610b4c565b5090565b90565b610b9491905b80821115610b905760008181610b879190610b97565b50600101610b71565b5090565b90565b50805460018160011615610100020316600290046000825580601f10610bbd5750610bdc565b601f016020900490600052602060002090810190610bdb9190610b46565b5b50565b600082601f830112610bf057600080fd5b8135610c03610bfe826112bb565b61128e565b9150818183526020840193506020810190508360005b83811015610c495781358601610c2f8882610c53565b845260208401935060208301925050600181019050610c19565b5050505092915050565b600082601f830112610c6457600080fd5b8135610c77610c72826112e3565b61128e565b91508082526020830160208301858383011115610c9357600080fd5b610c9e8382846113fb565b50505092915050565b600082601f830112610cb857600080fd5b8135610ccb610cc68261130f565b61128e565b91508082526020830160208301858383011115610ce757600080fd5b610cf28382846113fb565b50505092915050565b600081359050610d0a8161144e565b92915050565b60008060008060008060008060006101208a8c031215610d2f57600080fd5b60008a013567ffffffffffffffff811115610d4957600080fd5b610d558c828d01610ca7565b9950506020610d668c828d01610cfb565b98505060408a013567ffffffffffffffff811115610d8357600080fd5b610d8f8c828d01610ca7565b97505060608a013567ffffffffffffffff811115610dac57600080fd5b610db88c828d01610bdf565b9650506080610dc98c828d01610cfb565b95505060a08a013567ffffffffffffffff811115610de657600080fd5b610df28c828d01610ca7565b94505060c08a013567ffffffffffffffff811115610e0f57600080fd5b610e1b8c828d01610ca7565b93505060e08a013567ffffffffffffffff811115610e3857600080fd5b610e448c828d01610bdf565b9250506101008a013567ffffffffffffffff811115610e6257600080fd5b610e6e8c828d01610ca7565b9150509295985092959850929598565b600060208284031215610e9057600080fd5b6000610e9e84828501610cfb565b91505092915050565b6000610eb38383610fd7565b905092915050565b6000610ec783836110aa565b905092915050565b6000610eda8261135b565b610ee48185611396565b935083602082028501610ef68561133b565b8060005b85811015610f325784840389528151610f138582610ea7565b9450610f1e8361137c565b925060208a01995050600181019050610efa565b50829750879550505050505092915050565b6000610f4f82611366565b610f5981856113a7565b935083602082028501610f6b8561134b565b8060005b85811015610fa75784840389528151610f888582610ebb565b9450610f9383611389565b925060208a01995050600181019050610f6f565b50829750879550505050505092915050565b610fc2816113e5565b82525050565b610fd1816113e5565b82525050565b6000610fe282611371565b610fec81856113c3565b9350610ffc81856020860161140a565b6110058161143d565b840191505092915050565b600061101d6015836113d4565b91507f4661696c7572652120455448206e6f742073656e7400000000000000000000006000830152602082019050919050565b600061105d601a836113d4565b91507f4e65656420746f2073656e6420657861637420616d6f756e742e0000000000006000830152602082019050919050565b600061109d6000836113b8565b9150600082019050919050565b60006101a0830160008301516110c360008601826111ed565b50602083015184820360208601526110db8282610fd7565b91505060408301516110f060408601826111ed565b50606083015184820360608601526111088282610fd7565b915050608083015184820360808601526111228282610ecf565b91505060a083015161113760a08601826111ed565b5060c083015161114a60c08601826111ed565b5060e083015184820360e08601526111628282610fd7565b91505061010083015184820361010086015261117e8282610fd7565b91505061012083015184820361012086015261119a8282610ecf565b9150506101408301518482036101408601526111b68282610fd7565b9150506101608301516111cd6101608601826111ed565b506101808301516111e2610180860182610fb9565b508091505092915050565b6111f6816113f1565b82525050565b600061120782611090565b9150819050919050565b6000602082019050818103600083015261122b8184610f44565b905092915050565b60006020820190506112486000830184610fc8565b92915050565b6000602082019050818103600083015261126781611010565b9050919050565b6000602082019050818103600083015261128781611050565b9050919050565b6000604051905081810181811067ffffffffffffffff821117156112b157600080fd5b8060405250919050565b600067ffffffffffffffff8211156112d257600080fd5b602082029050602081019050919050565b600067ffffffffffffffff8211156112fa57600080fd5b601f19601f8301169050602081019050919050565b600067ffffffffffffffff82111561132657600080fd5b601f19601f8301169050602081019050919050565b6000819050602082019050919050565b6000819050602082019050919050565b600081519050919050565b600081519050919050565b600081519050919050565b6000602082019050919050565b6000602082019050919050565b600082825260208201905092915050565b600082825260208201905092915050565b600081905092915050565b600082825260208201905092915050565b600082825260208201905092915050565b60008115159050919050565b6000819050919050565b82818337600083830152505050565b60005b8381101561142857808201518184015260208101905061140d565b83811115611437576000848401525b50505050565b6000601f19601f8301169050919050565b611457816113f1565b811461146257600080fd5b5056fea365627a7a72315820411215c377877e8df78f25d97907ea9e8016fe6339a032fa0a9827f21b0c67cb6c6578706572696d656e74616cf564736f6c63430005100040",
  "source": "pragma solidity >=0.4.22 <0.9.0;\r\npragma experimental ABIEncoderV2;\r\n\r\ncontract Products {\r\n  address storeAccount = 0xbF1bbfF196EFD824a9d460FDe965861E8296F428;\r\n\r\n  struct Product {\r\n    uint id;\r\n    string name;\r\n    uint price;\r\n    string coverImage;\r\n    string[] platforms;\r\n    uint256 creationDate;\r\n    uint256 releaseDate;\r\n    string developer;\r\n    string distributor;\r\n    string[] genres;\r\n    string description;\r\n    uint sales;\r\n    bool isActive;\r\n  }\r\n\r\n  Product[] products;\r\n\r\n  function getProducts() public view returns (Product[] memory) {\r\n    return products;\r\n  }\r\n\r\n  function addProduct(string memory name, uint price, string memory coverImage, string[] memory platforms, uint256 releaseDate, string memory developer, string memory distributor, string[] memory genres, string memory  description) public returns (bool success) {\r\n    Product memory newProduct = Product(products.length, name, price, coverImage, platforms, block.timestamp, releaseDate, developer, distributor, genres, description, 0, true);\r\n    products.push(newProduct);\r\n    return true;\r\n  }\r\n\r\n  function removeProduct(uint id) public returns (bool success) {\r\n    products[id].isActive = false;\r\n    return true;\r\n  }\r\n\r\n  function buyProduct(uint id) external payable {\r\n    require(msg.value == (products[id].price * 1 ether), 'Need to send exact amount.');\r\n\r\n    (bool sent, /*memory data*/) = storeAccount.call.value(msg.value)(\"\");\r\n    require(sent, \"Failure! ETH not sent\");\r\n  }\r\n}",
  "sourcePath": "C:\\Users\\55859\\Documents\\Github\\blockchain-store\\contracts\\Products.sol",
  "compiler": {
    "name": "solc",
    "version": "0.5.16+commit.9c3226ce.Emscripten.clang"
  },
  "schemaVersion": "3.4.7",
  "updatedAt": "2022-05-17T02:56:20.098Z",
  "networkType": "ethereum",
  "devdoc": {
    "methods": {}
  },
  "userdoc": {
    "methods": {}
  }
}