{
  "contractName": "Products",
  "abi": [
    {
      "constant": true,
      "inputs": [],
      "name": "getProducts",
      "outputs": [
        {
          "components": [
            {
              "internalType": "uint256",
              "name": "id",
              "type": "uint256"
            },
            {
              "internalType": "string",
              "name": "name",
              "type": "string"
            },
            {
              "internalType": "uint256",
              "name": "price",
              "type": "uint256"
            },
            {
              "internalType": "string",
              "name": "coverImage",
              "type": "string"
            },
            {
              "internalType": "string[]",
              "name": "platforms",
              "type": "string[]"
            },
            {
              "internalType": "uint256",
              "name": "creationDate",
              "type": "uint256"
            },
            {
              "internalType": "uint256",
              "name": "releaseDate",
              "type": "uint256"
            },
            {
              "internalType": "string",
              "name": "developer",
              "type": "string"
            },
            {
              "internalType": "string",
              "name": "distributor",
              "type": "string"
            },
            {
              "internalType": "string[]",
              "name": "genres",
              "type": "string[]"
            },
            {
              "internalType": "string",
              "name": "description",
              "type": "string"
            },
            {
              "internalType": "uint256",
              "name": "sales",
              "type": "uint256"
            },
            {
              "internalType": "bool",
              "name": "isActive",
              "type": "bool"
            }
          ],
          "internalType": "struct Products.Product[]",
          "name": "",
          "type": "tuple[]"
        }
      ],
      "payable": false,
      "stateMutability": "view",
      "type": "function"
    },
    {
      "constant": false,
      "inputs": [
        {
          "components": [
            {
              "internalType": "uint256",
              "name": "id",
              "type": "uint256"
            },
            {
              "internalType": "string",
              "name": "name",
              "type": "string"
            },
            {
              "internalType": "uint256",
              "name": "price",
              "type": "uint256"
            },
            {
              "internalType": "string",
              "name": "coverImage",
              "type": "string"
            },
            {
              "internalType": "string[]",
              "name": "platforms",
              "type": "string[]"
            },
            {
              "internalType": "uint256",
              "name": "creationDate",
              "type": "uint256"
            },
            {
              "internalType": "uint256",
              "name": "releaseDate",
              "type": "uint256"
            },
            {
              "internalType": "string",
              "name": "developer",
              "type": "string"
            },
            {
              "internalType": "string",
              "name": "distributor",
              "type": "string"
            },
            {
              "internalType": "string[]",
              "name": "genres",
              "type": "string[]"
            },
            {
              "internalType": "string",
              "name": "description",
              "type": "string"
            },
            {
              "internalType": "uint256",
              "name": "sales",
              "type": "uint256"
            },
            {
              "internalType": "bool",
              "name": "isActive",
              "type": "bool"
            }
          ],
          "internalType": "struct Products.Product",
          "name": "product",
          "type": "tuple"
        }
      ],
      "name": "addProduct",
      "outputs": [
        {
          "internalType": "bool",
          "name": "success",
          "type": "bool"
        }
      ],
      "payable": false,
      "stateMutability": "nonpayable",
      "type": "function"
    },
    {
      "constant": false,
      "inputs": [
        {
          "internalType": "uint256",
          "name": "id",
          "type": "uint256"
        }
      ],
      "name": "removeProduct",
      "outputs": [
        {
          "internalType": "bool",
          "name": "success",
          "type": "bool"
        }
      ],
      "payable": false,
      "stateMutability": "nonpayable",
      "type": "function"
    }
  ],
  "bytecode": "0x608060405273bf1bbff196efd824a9d460fde965861e8296f4286000806101000a81548173ffffffffffffffffffffffffffffffffffffffff021916908373ffffffffffffffffffffffffffffffffffffffff16021790555034801561006457600080fd5b506111ff806100746000396000f3fe608060405234801561001057600080fd5b50600436106100415760003560e01c80635ee95cae146100465780636994d5bf14610076578063c29b2f20146100a6575b600080fd5b610060600480360361005b9190810190610cf5565b6100c4565b60405161006d9190610ffb565b60405180910390f35b610090600480360361008b9190810190610cb4565b610107565b60405161009d9190610ffb565b60405180910390f35b6100ae6102c4565b6040516100bb9190610fd9565b60405180910390f35b6000806001808403815481106100d657fe5b90600052602060002090600d0201600c0160006101000a81548160ff02191690831515021790555060019050919050565b6000808260200151511161011a57600080fd5b600082604001511161012b57600080fd5b60008260600151511161013d57600080fd5b428260a00181815250506001805490508260000181815250506001826101800190151590811515815250506001829080600181540180825580915050906001820390600052602060002090600d0201600090919290919091506000820151816000015560208201518160010190805190602001906101bc92919061086d565b506040820151816002015560608201518160030190805190602001906101e392919061086d565b5060808201518160040190805190602001906102009291906108ed565b5060a0820151816005015560c0820151816006015560e082015181600701908051906020019061023192919061086d565b5061010082015181600801908051906020019061024f92919061086d565b5061012082015181600901908051906020019061026d9291906108ed565b5061014082015181600a01908051906020019061028b92919061086d565b5061016082015181600b015561018082015181600c0160006101000a81548160ff02191690831515021790555050505060019050919050565b60606001805480602002602001604051908101604052809291908181526020016000905b8282101561086457838290600052602060002090600d0201604051806101a001604052908160008201548152602001600182018054600181600116156101000203166002900480601f0160208091040260200160405190810160405280929190818152602001828054600181600116156101000203166002900480156103af5780601f10610384576101008083540402835291602001916103af565b820191906000526020600020905b81548152906001019060200180831161039257829003601f168201915b5050505050815260200160028201548152602001600382018054600181600116156101000203166002900480601f01602080910402602001604051908101604052809291908181526020018280546001816001161561010002031660029004801561045b5780601f106104305761010080835404028352916020019161045b565b820191906000526020600020905b81548152906001019060200180831161043e57829003601f168201915b5050505050815260200160048201805480602002602001604051908101604052809291908181526020016000905b82821015610545578382906000526020600020018054600181600116156101000203166002900480601f0160208091040260200160405190810160405280929190818152602001828054600181600116156101000203166002900480156105315780601f1061050657610100808354040283529160200191610531565b820191906000526020600020905b81548152906001019060200180831161051457829003601f168201915b505050505081526020019060010190610489565b5050505081526020016005820154815260200160068201548152602001600782018054600181600116156101000203166002900480601f0160208091040260200160405190810160405280929190818152602001828054600181600116156101000203166002900480156105fa5780601f106105cf576101008083540402835291602001916105fa565b820191906000526020600020905b8154815290600101906020018083116105dd57829003601f168201915b50505050508152602001600882018054600181600116156101000203166002900480601f01602080910402602001604051908101604052809291908181526020018280546001816001161561010002031660029004801561069c5780601f106106715761010080835404028352916020019161069c565b820191906000526020600020905b81548152906001019060200180831161067f57829003601f168201915b5050505050815260200160098201805480602002602001604051908101604052809291908181526020016000905b82821015610786578382906000526020600020018054600181600116156101000203166002900480601f0160208091040260200160405190810160405280929190818152602001828054600181600116156101000203166002900480156107725780601f1061074757610100808354040283529160200191610772565b820191906000526020600020905b81548152906001019060200180831161075557829003601f168201915b5050505050815260200190600101906106ca565b505050508152602001600a82018054600181600116156101000203166002900480601f0160208091040260200160405190810160405280929190818152602001828054600181600116156101000203166002900480156108275780601f106107fc57610100808354040283529160200191610827565b820191906000526020600020905b81548152906001019060200180831161080a57829003601f168201915b50505050508152602001600b8201548152602001600c820160009054906101000a900460ff161515151581525050815260200190600101906102e8565b50505050905090565b828054600181600116156101000203166002900490600052602060002090601f016020900481019282601f106108ae57805160ff19168380011785556108dc565b828001600101855582156108dc579182015b828111156108db5782518255916020019190600101906108c0565b5b5090506108e9919061094d565b5090565b82805482825590600052602060002090810192821561093c579160200282015b8281111561093b57825182908051906020019061092b92919061086d565b509160200191906001019061090d565b5b5090506109499190610972565b5090565b61096f91905b8082111561096b576000816000905550600101610953565b5090565b90565b61099b91905b80821115610997576000818161098e919061099e565b50600101610978565b5090565b90565b50805460018160011615610100020316600290046000825580601f106109c457506109e3565b601f0160209004906000526020600020908101906109e2919061094d565b5b50565b600082601f8301126109f757600080fd5b8135610a0a610a0582611043565b611016565b9150818183526020840193506020810190508360005b83811015610a505781358601610a368882610a6f565b845260208401935060208301925050600181019050610a20565b5050505092915050565b600081359050610a698161118e565b92915050565b600082601f830112610a8057600080fd5b8135610a93610a8e8261106b565b611016565b91508082526020830160208301858383011115610aaf57600080fd5b610aba83828461113b565b50505092915050565b60006101a08284031215610ad657600080fd5b610ae16101a0611016565b90506000610af184828501610c9f565b600083015250602082013567ffffffffffffffff811115610b1157600080fd5b610b1d84828501610a6f565b6020830152506040610b3184828501610c9f565b604083015250606082013567ffffffffffffffff811115610b5157600080fd5b610b5d84828501610a6f565b606083015250608082013567ffffffffffffffff811115610b7d57600080fd5b610b89848285016109e6565b60808301525060a0610b9d84828501610c9f565b60a08301525060c0610bb184828501610c9f565b60c08301525060e082013567ffffffffffffffff811115610bd157600080fd5b610bdd84828501610a6f565b60e08301525061010082013567ffffffffffffffff811115610bfe57600080fd5b610c0a84828501610a6f565b6101008301525061012082013567ffffffffffffffff811115610c2c57600080fd5b610c38848285016109e6565b6101208301525061014082013567ffffffffffffffff811115610c5a57600080fd5b610c6684828501610a6f565b61014083015250610160610c7c84828501610c9f565b61016083015250610180610c9284828501610a5a565b6101808301525092915050565b600081359050610cae816111a5565b92915050565b600060208284031215610cc657600080fd5b600082013567ffffffffffffffff811115610ce057600080fd5b610cec84828501610ac3565b91505092915050565b600060208284031215610d0757600080fd5b6000610d1584828501610c9f565b91505092915050565b6000610d2a8383610e4e565b905092915050565b6000610d3e8383610e87565b905092915050565b6000610d51826110b7565b610d5b81856110f2565b935083602082028501610d6d85611097565b8060005b85811015610da95784840389528151610d8a8582610d1e565b9450610d95836110d8565b925060208a01995050600181019050610d71565b50829750879550505050505092915050565b6000610dc6826110c2565b610dd08185611103565b935083602082028501610de2856110a7565b8060005b85811015610e1e5784840389528151610dff8582610d32565b9450610e0a836110e5565b925060208a01995050600181019050610de6565b50829750879550505050505092915050565b610e3981611125565b82525050565b610e4881611125565b82525050565b6000610e59826110cd565b610e638185611114565b9350610e7381856020860161114a565b610e7c8161117d565b840191505092915050565b60006101a083016000830151610ea06000860182610fca565b5060208301518482036020860152610eb88282610e4e565b9150506040830151610ecd6040860182610fca565b5060608301518482036060860152610ee58282610e4e565b91505060808301518482036080860152610eff8282610d46565b91505060a0830151610f1460a0860182610fca565b5060c0830151610f2760c0860182610fca565b5060e083015184820360e0860152610f3f8282610e4e565b915050610100830151848203610100860152610f5b8282610e4e565b915050610120830151848203610120860152610f778282610d46565b915050610140830151848203610140860152610f938282610e4e565b915050610160830151610faa610160860182610fca565b50610180830151610fbf610180860182610e30565b508091505092915050565b610fd381611131565b82525050565b60006020820190508181036000830152610ff38184610dbb565b905092915050565b60006020820190506110106000830184610e3f565b92915050565b6000604051905081810181811067ffffffffffffffff8211171561103957600080fd5b8060405250919050565b600067ffffffffffffffff82111561105a57600080fd5b602082029050602081019050919050565b600067ffffffffffffffff82111561108257600080fd5b601f19601f8301169050602081019050919050565b6000819050602082019050919050565b6000819050602082019050919050565b600081519050919050565b600081519050919050565b600081519050919050565b6000602082019050919050565b6000602082019050919050565b600082825260208201905092915050565b600082825260208201905092915050565b600082825260208201905092915050565b60008115159050919050565b6000819050919050565b82818337600083830152505050565b60005b8381101561116857808201518184015260208101905061114d565b83811115611177576000848401525b50505050565b6000601f19601f8301169050919050565b61119781611125565b81146111a257600080fd5b50565b6111ae81611131565b81146111b957600080fd5b5056fea365627a7a723158208400236de558f1ff4f537a17f3f74413a06fbdc0759083573a6b544826d678a86c6578706572696d656e74616cf564736f6c63430005100040",
  "source": "pragma solidity >=0.4.22 <0.9.0;\r\npragma experimental ABIEncoderV2;\r\n\r\ncontract Products {\r\n  address storeAccount = 0xbF1bbfF196EFD824a9d460FDe965861E8296F428;\r\n\r\n  struct Product {\r\n    uint id;\r\n    string name;\r\n    uint price;\r\n    string coverImage;\r\n    string[] platforms;\r\n    uint256 creationDate;\r\n    uint256 releaseDate;\r\n    string developer;\r\n    string distributor;\r\n    string[] genres;\r\n    string description;\r\n    uint sales;\r\n    bool isActive;\r\n  }\r\n\r\n  Product[] products;\r\n\r\n  function getProducts() public view returns (Product[] memory) {\r\n    return products;\r\n  }\r\n\r\n  function addProduct(Product memory product) public returns (bool success) {\r\n    require(bytes(product.name).length > 0);\r\n    require(product.price > 0);\r\n    require(bytes(product.coverImage).length > 0);\r\n\r\n    product.creationDate = block.timestamp;\r\n    product.id = products.length;\r\n    product.isActive = true;\r\n    products.push(product);\r\n    return true;\r\n  }\r\n\r\n  function removeProduct(uint id) public returns (bool success) {\r\n    products[id - 1].isActive = false;\r\n    return true;\r\n  }\r\n}",
  "sourcePath": "C:\\Users\\55859\\Documents\\Github\\blockchain-store\\contracts\\Products.sol",
  "compiler": {
    "name": "solc",
    "version": "0.5.16+commit.9c3226ce.Emscripten.clang"
  },
  "schemaVersion": "3.4.7",
  "updatedAt": "2022-05-11T22:53:01.546Z",
  "networkType": "ethereum",
  "devdoc": {
    "methods": {}
  },
  "userdoc": {
    "methods": {}
  }
}